:100000000EC028C027C026C025C024C023C022C0DF
:1000100021C020C01FC01EC01DC01CC01BC0112499
:100020001FBECFE5D2E0DEBFCDBF10E0A0E6B0E05E
:10003000E6EAFCE002C005900D92A438B107D9F7BA
:1000400010E0A4E8B0E001C01D92A039B107E1F7CB
:1000500010D327C6D5CF282F8850883070F448B3E6
:1000600030E02850304081E090E002C0880F991FB6
:100070002A95E2F78095842388BB0895282F88501D
:10008000883068F447B330E02850304081E090E099
:1000900002C0880F991F2A95E2F7482B47BB0895A5
:1000A000282F8850883070F447B330E02850304013
:1000B00081E090E002C0880F991F2A95E2F78095B1
:1000C000842387BB0895DF93CF9300D0CDB7DEB7ED
:1000D0001A8219820BC020E030E01A8219822F5F49
:1000E0003F4F92E0243E3907C1F78150882399F7AA
:1000F0000F900F90CF91DF910895DF93CF9300D0B1
:10010000CDB7DEB71A8219820BC020E030E01A8228
:1001100019822F5F3F4F9CE1283E3907C1F781507C
:10012000882399F70F900F90CF91DF9108950F9347
:100130001F93142FE62FE80F660F660FE60FF0E00F
:10014000E05AFF4F0081802F82958F70823019F125
:10015000833030F4882359F0813009F043C011C056
:10016000843069F1843008F18530E1F532C04423F0
:1001700021F088E083DFC09A35C088E06CDF88E03A
:1001800030C0442321F089E079DFC19A2BC089E097
:1001900062DF89E026C0442321F08AE06FDFC29A43
:1001A00021C08AE058DF8AE01CC0442321F08BE0A4
:1001B00065DFC39A17C08BE04EDF8BE012C044238B
:1001C00021F08CE05BDFC49A0DC08CE044DF8CE052
:1001D00008C0442329F08DE051DF8DE03CDF02C0F0
:1001E0008DE05EDFE02FEF70E230E1F0E33028F4E5
:1001F000EE2341F0E13079F50DC0E330D9F0E43081
:1002000051F520C0112321F088E038DF88E01FC0BD
:1002100088E020C0112321F089E030DF89E017C099
:1002200089E018C0112321F08AE028DF8AE00FC09E
:100230008AE010C0112321F08BE020DF8BE007C0A3
:100240008BE008C0112329F08CE018DF8CE003DF7D
:1002500002C08CE025DF1F910F910895BF92CF92CD
:10026000DF92EF92FF920F931F93B090890000E00E
:10027000023009F4ABC0033030F4002371F00130D8
:1002800009F0BBC15EC0043009F42DC1043008F48C
:10029000E3C0053009F0B1C16BC180918400182F13
:1002A000107148E0F42EF82234E0E32EE82222E038
:1002B000D22ED822CC24C394C82286B30000BB20FF
:1002C00009F4A0C1B5999EC11CC080E060E041E086
:1002D0002EDFFF2021F081E060E041E028DFEE200A
:1002E00021F082E060E041E022DFDD2021F083E0C8
:1002F00060E041E01CDFCC2021F084E060E041E0E0
:1003000016DF81E0E0DE112321F080E060E040E0D4
:100310000EDFFF2021F081E060E040E008DFEE200A
:1003200021F082E060E040E002DFDD2021F083E0A8
:1003300060E040E0FCDECC2009F45FC184E060E0D6
:100340005AC180918500182F187094E0F92EF82278
:10035000B2E0EB2EE822DD24D394D82286B300004D
:10036000BB2009F453C1B59951C116C081E061E0C9
:1003700041E0DDDEFF2021F082E061E041E0D7DEF8
:10038000EE2021F083E061E041E0D1DEDD2021F0CC
:1003900084E061E041E0CBDE81E095DE112321F0D5
:1003A00081E061E040E0C3DEFF2021F082E061E017
:1003B00040E0BDDEEE2021F083E061E040E0B7DE0A
:1003C000DD2009F41AC184E061E015C110918500B7
:1003D000107180918600A4E0FA2EF822F2E0EF2E50
:1003E000E822DD24D394D82286B30000BB2009F490
:1003F00011C1B5990FC116C080E061E041E097DE00
:10040000FF2021F082E062E041E091DEEE2021F069
:1004100083E062E041E08BDEDD2021F084E062E0F9
:1004200041E085DE81E04FDE112321F080E061E0D4
:1004300040E07DDEFF2021F082E062E040E077DEF8
:10044000EE2021F083E062E040E071DEDD2009F47F
:10045000D4C084E062E0CFC080918600182F107174
:10046000E8E0FE2EF8228091870072E0E72EE82275
:10047000DD24D394D82286B30000BB2009F4CEC07B
:10048000B599CCC016C080E062E041E050DEFF20AC
:1004900021F081E062E041E04ADEEE2021F083E0DD
:1004A00063E041E044DEDD2021F084E063E041E0F0
:1004B0003EDE81E008DE112321F080E062E040E0D2
:1004C00036DEFF2021F081E062E040E030DEEE2009
:1004D00021F083E063E040E02ADEDD2009F48DC0F6
:1004E00084E063E088C08091870060E1F62EF82206
:1004F00058E0E52EE82244E0D42ED822109188005E
:10050000117086B30000BB2009F48CC0B5998AC075
:1005100016C080E063E041E00ADEEE2021F081E0D9
:1005200063E041E004DEDD2021F082E063E041E0B1
:10053000FEDD112321F084E064E041E0F8DD81E09C
:10054000C2DDFF2021F080E063E040E0F0DDEE203E
:1005500021F081E063E040E0EADDDD2021F082E08F
:1005600063E040E0E4DD112309F447C084E042C0C9
:1005700080918800182F107138E0F32EF82224E0C3
:10058000E22EE82292E0D92ED82286B30000BB20CA
:1005900009F44CC0B5994AC016C080E064E041E05F
:1005A000C6DDFF2021F081E064E041E0C0DDEE2007
:1005B00021F082E064E041E0BADDDD2021F083E05B
:1005C00064E041E0B4DD81E07EDD112321F080E0D4
:1005D00064E040E0ACDDFF2021F081E064E040E039
:1005E000A6DDEE2021F082E064E040E0A0DDDD2029
:1005F00021F083E064E040E09ADD0F5F063009F00F
:1006000037CE18C0112309F464CE5FCE112309F44C
:10061000B1CEACCE112309F4F3CEEECE112309F402
:1006200036CF31CFFF2009F478CF73CF112309F4EF
:10063000B8CFB3CF1F910F91FF90EF90DF90CF9085
:10064000BF9008950F931F93082F10E00DC080E016
:1006500061E041E06CDD89E150DD80E061E040E097
:1006600066DD89E14ADD1F5F101788F31F910F9146
:100670000895BF92CF92DF92EF92FF920F931F9354
:10068000F89418BA17BA789486B30000B59B03C0E3
:1006900081E08093890080918900882311F084E0B3
:1006A00001C083E0CFDF00E0CC24BB24B39401C0C1
:1006B00000E0E02FF0E0E758FF4F808142D00F5F6D
:1006C000093008F000E0D0908F008FE0D822EE24AF
:1006D000FF242CC09C91892F880F8C938081880FD8
:1006E000808397FF02C08F5F80831196319680E0F0
:1006F000AF38B80779F710E080918900882379F046
:1007000086B38295869587708B258170CC2011F0F9
:10071000C82E05C0882319F0C82EFF24F3949EDD4F
:10072000FF2019F41F5F133239F7E394ED1420F022
:10073000FF2009F0BDCFBDCFAAE8B0E0E4E8F0E0CB
:10074000C9CF853409F4CAC0863408F05BC084334D
:1007500009F42FC2853358F58C3209F4DDC18D328E
:1007600098F4873209F4B4C1883238F4803209F43D
:100770009AC1813209F085C2A1C1883209F4BFC192
:10078000893209F07EC2BDC1813309F4EAC18233E6
:1007900038F48E3209F4CEC1803309F072C201C13F
:1007A000823309F4EAC1833309F06BC2F4C18A339E
:1007B00009F498C18B3398F4873309F419C288334C
:1007C00038F4853309F4FFC1863309F05AC205C2F3
:1007D000883309F41BC2893309F053C222C2823420
:1007E00009F473C0833438F48F3309F429C2813497
:1007F00009F047C262C0833409F469C0843409F047
:1008000040C26AC0813509F4E1C0823558F58B34A5
:1008100009F4A1C08C3498F4883409F47BC089347D
:1008200038F4863409F462C0873409F02AC26AC0F9
:10083000893409F478C08A3409F023C280C08E3428
:1008400009F4A7C08F3438F48C3409F48CC08D348B
:1008500009F017C290C08F3409F4A3C0803509F0A5
:1008600010C2A8C0873509F4EEC0883598F48435E5
:1008700009F4CEC0853538F4823509F4B4C0833527
:1008800009F0FFC1B7C0853509F4C9C0863509F044
:10089000F8C1CDC08A3509F4FBC08B3538F48835F2
:1008A00009F4DCC0893509F0ECC1E6C0893C09F4E3
:1008B0004EC1803F09F0E5C1D3C180E680938A0034
:1008C00090E990938B0080EF18C080EEA0C180E784
:1008D00080938A0090E869C080EE64C020EF209386
:1008E0008A0090E890938B0080EE5CC180EF80934B
:1008F0008A0090E890938B0080EE80938C00909318
:100900008D009BC180E780938A0080E880938B00F4
:1009100080EB1AC080E980938A0080938B0090EF6F
:1009200090938C0050C080E880938A0080938B0065
:1009300080938C0080938D0080938E00DEC080E1D8
:1009400080938A0080938B0080938C0080E9809351
:100950008D0080E681C120E920938A0090EA90937F
:100960008B0080EC1FC180E880938A0080938B000D
:1009700080938C000CC198E890938A0088ED809356
:100980008B0088EA80938C0090938D0090938E006A
:1009900084C190E990938A0080ED80938B0080EB76
:1009A000ACCF80E680938A0090E990938B0090937F
:1009B0008C0034C190EE90938A0080E980938B0084
:1009C00090938C0080E880938D0046C180E78093EF
:1009D0008A0088E880938B0080938C0080E9809364
:1009E0008D0088E658C180EE80938A0090E990934C
:1009F0008B0083CF80E780938A0080E880938B0010
:100A000080E680938C0080E180938D0080EE24C18D
:100A100088EF80938A0080E280938B0034C080E965
:100A200080938A0080938B0080938C0090CF88E81D
:100A300080938A0080938B0080938C0080E5809364
:100A40008D0080E228C188EA80938A0080938B0021
:100A500080938C0080938D0080E51DC128E8209351
:100A60008A0090E590938B0080E280938C009093B5
:100A70008D0020938E0011C188E880938A0080E564
:100A800080938B0080E280938C0080938D0003C163
:100A900090EF90938A0080E180938B0080E68093B2
:100AA0008C0080E8C8C010928A0010928B001092CF
:100AB0008C0010928D0010928E0047C080E88093C9
:100AC0008A0080938B0080938C0010928D003BC035
:100AD00080E880938A0080938B0010928C001092A3
:100AE0008D0009C010928A0080E880938B001092DC
:100AF0008C0080938D0010928E0082E0CFC080E247
:100B000001C080E880938A0090E490938B009093DA
:100B10008C0090938D0017C010928A0010928B0069
:100B200010928C0080E480938D0080E880938E008A
:100B300083E0B4C010928A0010928B0010928C0057
:100B400010928D0080E880938E0084E0A7C0109200
:100B50008A0010928B0010928C0010928D0088EA0F
:100B60009AC090E290938A0080E680938B009093E5
:100B70008C0090938D0080E76FC080EE80938A0098
:100B800080E180938B0080E680938C0080E88093E6
:100B90008D0080EF61C020EE20938A0090E1909359
:100BA0008B0080E680938C0090938D0020938E00C4
:100BB00055C080E980938A0080938B0080EF8093FA
:100BC0008C0080E100CF80EF80938A0080E88093E2
:100BD0008B0090EE90938C002DC090E690938A004D
:100BE00080E880938B0080EE80938C0080E923C0A6
:100BF00080EF80938A0080E180938B0080E2809375
:100C00008C0080E480938D0080E826C080E680938D
:100C10008A0090E990938B0080938C0090938D00D4
:100C20001BC090E690938A0080E980938B0080E758
:100C300080938C0080E180938D0090938E000EC095
:100C400080EE80938A0080E180938B0080E6809321
:100C50008C0010928D0080E480938E0085E01EC091
:100C60008CE680938A0082E980938B0084E48093F1
:100C70008C0088E280938D0080E180938E0088E074
:100C80000DC088EA80938A0090E590938B00809352
:100C90008C0090938D0080938E0086E080938F006F
:060CA0000895F894FFCF57
:100CA600545352515034434241402423323130147C
:100CB60013122120040302011048454E4E455220CE
:040CC60020200000EA
:00000001FF
